{
  "transactions": [
    {
      "hash": "0xe464e002492443d063ae85dfb798c7100898a640dbc55d4737c6117edee0dcf9",
      "transactionType": "CREATE",
      "contractName": "GHORouter",
      "contractAddress": "0x6e6c09f045f1ddfc05e5cdfa78e441f3ad85a900",
      "function": null,
      "arguments": null,
      "transaction": {
        "from": "0xa0fcc0ef2e8624797ff20c38725748024bca67a3",
        "gas": "0xdd702",
        "value": "0x0",
        "input": "0x608060405234801561000f575f80fd5b50610ba48061001d5f395ff3fe608060405234801561000f575f80fd5b506004361061004a575f3560e01c80630b2390d21461004e578063281e79d8146100745780635f8cc72514610087578063d67fa433146100af575b5f80fd5b61006161005c366004610aaa565b6100c2565b6040519081526020015b60405180910390f35b610061610082366004610aaa565b6103a9565b61009a610095366004610ada565b610681565b6040805192835260208301919091520161006b565b61009a6100bd366004610ada565b6107ba565b5f825f036100e35760405163162908e360e11b815260040160405180910390fd5b6001600160a01b03841673a0b86991c6218b36c1d19d4a2e9eb0ce3606eb481480159061012d57506001600160a01b03841673dac17f958d2ee523a2206206994597c13d831ec714155b1561014b5760405163c1ab6dc160e01b815260040160405180910390fd5b5f6001600160a01b03851673a0b86991c6218b36c1d19d4a2e9eb0ce3606eb481461018a5773535b2f7c20b9c83d70e519cf9991578ef9816b7b6101a0565b73feeb6fe430b7523fef2a38327241ee71537795355b90505f6001600160a01b03861673a0b86991c6218b36c1d19d4a2e9eb0ce3606eb48146101e157737bc3485026ac48b6cf9baf0a377477fff5703af86101f7565b73d4fa2d31b7968e448877f69a96de69f5de8cd23e5b905061020e6001600160a01b0387163330886108a9565b6102226001600160a01b03871682876108ea565b604051636e553f6560e01b8152600481018690523060248201525f906001600160a01b03831690636e553f65906044016020604051808303815f875af115801561026e573d5f803e3d5ffd5b505050506040513d601f19601f820116820180604052508101906102929190610b02565b90506102a86001600160a01b03831684836108ea565b6040516302a910eb60e61b8152600481018290523060248201526001600160a01b0384169063aa443ac09060440160408051808303815f875af11580156102f1573d5f803e3d5ffd5b505050506040513d601f19601f820116820180604052508101906103159190610b19565b9450508484101561033957604051638199f5f360e01b815260040160405180910390fd5b6103587340d16fc0246ad3160ccc09b8d0d3a2cd28ae6c2f3386610969565b60408051878152602081018690526001600160a01b0389169133917f517f4de333bbdf25024f8e6195e56d8162436e75c45063f1a3f6405d7ee3274191015b60405180910390a35050509392505050565b5f825f036103ca5760405163162908e360e11b815260040160405180910390fd5b6001600160a01b03841673a0b86991c6218b36c1d19d4a2e9eb0ce3606eb481480159061041457506001600160a01b03841673dac17f958d2ee523a2206206994597c13d831ec714155b156104325760405163c1ab6dc160e01b815260040160405180910390fd5b5f6001600160a01b03851673a0b86991c6218b36c1d19d4a2e9eb0ce3606eb48146104715773535b2f7c20b9c83d70e519cf9991578ef9816b7b610487565b73feeb6fe430b7523fef2a38327241ee71537795355b90505f6001600160a01b03861673a0b86991c6218b36c1d19d4a2e9eb0ce3606eb48146104c857737bc3485026ac48b6cf9baf0a377477fff5703af86104de565b73d4fa2d31b7968e448877f69a96de69f5de8cd23e5b90506105007340d16fc0246ad3160ccc09b8d0d3a2cd28ae6c2f3330886108a9565b61051f7340d16fc0246ad3160ccc09b8d0d3a2cd28ae6c2f83876108ea565b604051630207d83d60e51b81525f60048201819052306024830152906001600160a01b038416906340fb07a09060440160408051808303815f875af115801561056a573d5f803e3d5ffd5b505050506040513d601f19601f8201168201806040525081019061058e9190610b19565b50604051635d043b2960e11b815260048101829052306024820181905260448201529091506001600160a01b0383169063ba087652906064016020604051808303815f875af11580156105e3573d5f803e3d5ffd5b505050506040513d601f19601f820116820180604052508101906106079190610b02565b93508484101561062a57604051638199f5f360e01b815260040160405180910390fd5b61063e6001600160a01b0388163386610969565b60408051878152602081018690526001600160a01b0389169133917f7623b0eb266a1ff88eb9f15ae373ec9404604caed4efbf92f669174625aeb2589101610397565b5f806001600160a01b03841673a0b86991c6218b36c1d19d4a2e9eb0ce3606eb48148015906106cd57506001600160a01b03841673dac17f958d2ee523a2206206994597c13d831ec714155b156106eb5760405163c1ab6dc160e01b815260040160405180910390fd5b5f6001600160a01b03851673a0b86991c6218b36c1d19d4a2e9eb0ce3606eb481461072a5773535b2f7c20b9c83d70e519cf9991578ef9816b7b610740565b73feeb6fe430b7523fef2a38327241ee71537795355b60405163aa278b0360e01b8152600481018690529091506001600160a01b0382169063aa278b03906024015b608060405180830381865afa158015610787573d5f803e3d5ffd5b505050506040513d601f19601f820116820180604052508101906107ab9190610b3b565b91989197509095505050505050565b5f806001600160a01b03841673a0b86991c6218b36c1d19d4a2e9eb0ce3606eb481480159061080657506001600160a01b03841673dac17f958d2ee523a2206206994597c13d831ec714155b156108245760405163c1ab6dc160e01b815260040160405180910390fd5b5f6001600160a01b03851673a0b86991c6218b36c1d19d4a2e9eb0ce3606eb48146108635773535b2f7c20b9c83d70e519cf9991578ef9816b7b610879565b73feeb6fe430b7523fef2a38327241ee71537795355b604051636218940760e11b8152600481018690529091506001600160a01b0382169063c431280e9060240161076c565b6108b7848484846001610976565b6108e457604051635274afe760e01b81526001600160a01b03851660048201526024015b60405180910390fd5b50505050565b6108f68383835f6109e3565b6109645761090783835f60016109e3565b61092f57604051635274afe760e01b81526001600160a01b03841660048201526024016108db565b61093c83838360016109e3565b61096457604051635274afe760e01b81526001600160a01b03841660048201526024016108db565b505050565b61093c8383836001610a45565b6040516323b872dd60e01b5f8181526001600160a01b038781166004528616602452604485905291602083606481808c5af1925060015f511483166109d25783831516156109c6573d5f823e3d81fd5b5f883b113d1516831692505b604052505f60605295945050505050565b60405163095ea7b360e01b5f8181526001600160a01b038616600452602485905291602083604481808b5af1925060015f51148316610a39578383151615610a2d573d5f823e3d81fd5b5f873b113d1516831692505b60405250949350505050565b60405163a9059cbb60e01b5f8181526001600160a01b038616600452602485905291602083604481808b5af1925060015f51148316610a39578383151615610a2d573d5f823e3d81fd5b80356001600160a01b0381168114610aa5575f80fd5b919050565b5f805f60608486031215610abc575f80fd5b610ac584610a8f565b95602085013595506040909401359392505050565b5f8060408385031215610aeb575f80fd5b610af483610a8f565b946020939093013593505050565b5f60208284031215610b12575f80fd5b5051919050565b5f8060408385031215610b2a575f80fd5b505080516020909101519092909150565b5f805f8060808587031215610b4e575f80fd5b50508251602084015160408501516060909501519196909550909250905056fea26469706673582212200f16016881ec03ae5d535ddd029bbaac2d7922153fd26db8a0c271265e6bf7c064736f6c63430008160033",
        "nonce": "0x2b",
        "chainId": "0x1"
      },
      "additionalContracts": [],
      "isFixedGasLimit": false
    },
    {
      "hash": "0x513494d3245d63129b8ffc32ba3efb503943811b98d6bfa1dc729b8d95d6ac9e",
      "transactionType": "CALL",
      "contractName": null,
      "contractAddress": "0xa0b86991c6218b36c1d19d4a2e9eb0ce3606eb48",
      "function": "approve(address,uint256)",
      "arguments": [
        "0x6E6c09f045f1DdFC05e5cdfA78E441f3AD85a900",
        "5000000"
      ],
      "transaction": {
        "from": "0xa0fcc0ef2e8624797ff20c38725748024bca67a3",
        "to": "0xa0b86991c6218b36c1d19d4a2e9eb0ce3606eb48",
        "gas": "0x13d53",
        "value": "0x0",
        "input": "0x095ea7b30000000000000000000000006e6c09f045f1ddfc05e5cdfa78e441f3ad85a90000000000000000000000000000000000000000000000000000000000004c4b40",
        "nonce": "0x2c",
        "chainId": "0x1"
      },
      "additionalContracts": [],
      "isFixedGasLimit": false
    },
    {
      "hash": "0x0118cfc48d4006c4760924aca26f0060cdfc76626d2d34817cbf7d942a091bd5",
      "transactionType": "CALL",
      "contractName": "GHORouter",
      "contractAddress": "0x6e6c09f045f1ddfc05e5cdfa78e441f3ad85a900",
      "function": "swapToGHO(address,uint256,uint256)",
      "arguments": [
        "0xA0b86991c6218b36c1d19D4a2e9Eb0cE3606eB48",
        "5000000",
        "0"
      ],
      "transaction": {
        "from": "0xa0fcc0ef2e8624797ff20c38725748024bca67a3",
        "to": "0x6e6c09f045f1ddfc05e5cdfa78e441f3ad85a900",
        "gas": "0x7b41e",
        "value": "0x0",
        "input": "0x0b2390d2000000000000000000000000a0b86991c6218b36c1d19d4a2e9eb0ce3606eb4800000000000000000000000000000000000000000000000000000000004c4b400000000000000000000000000000000000000000000000000000000000000000",
        "nonce": "0x2d",
        "chainId": "0x1"
      },
      "additionalContracts": [],
      "isFixedGasLimit": false
    }
  ],
  "receipts": [
    {
      "status": "0x1",
      "cumulativeGasUsed": "0x27aab0d",
      "logs": [],
      "logsBloom": "0x00000000000000000000000000000000000000000000000000000000000000000000000000000000000000000000000000000000000000000000000000000000000000000000000000000000000000000000000000000000000000000000000000000000000000000000000000000000000000000000000000000000000000000000000000000000000000000000000000000000000000000000000000000000000000000000000000000000000000000000000000000000000000000000000000000000000000000000000000000000000000000000000000000000000000000000000000000000000000000000000000000000000000000000000000000000",
      "type": "0x2",
      "transactionHash": "0xe464e002492443d063ae85dfb798c7100898a640dbc55d4737c6117edee0dcf9",
      "transactionIndex": "0x1a4",
      "blockHash": "0x9aeaa83b4a36a432577df8523d6eb47ac4acfa778d0dd7873195c8589aa17332",
      "blockNumber": "0x16bc9be",
      "gasUsed": "0xaa564",
      "effectiveGasPrice": "0x1b442015",
      "from": "0xa0fcc0ef2e8624797ff20c38725748024bca67a3",
      "to": null,
      "contractAddress": "0x6e6c09f045f1ddfc05e5cdfa78e441f3ad85a900"
    },
    {
      "status": "0x1",
      "cumulativeGasUsed": "0x1c69330",
      "logs": [
        {
          "address": "0xa0b86991c6218b36c1d19d4a2e9eb0ce3606eb48",
          "topics": [
            "0x8c5be1e5ebec7d5bd14f71427d1e84f3dd0314c0f7b2291e5b200ac8c7c3b925",
            "0x000000000000000000000000a0fcc0ef2e8624797ff20c38725748024bca67a3",
            "0x0000000000000000000000006e6c09f045f1ddfc05e5cdfa78e441f3ad85a900"
          ],
          "data": "0x00000000000000000000000000000000000000000000000000000000004c4b40",
          "blockHash": "0xb5d4cfe1a6e71cc357629b74961fca98afa58afba103a34cfdb6d4006c58fc51",
          "blockNumber": "0x16bc9bf",
          "blockTimestamp": "0x691f371b",
          "transactionHash": "0x513494d3245d63129b8ffc32ba3efb503943811b98d6bfa1dc729b8d95d6ac9e",
          "transactionIndex": "0xc6",
          "logIndex": "0x2c4",
          "removed": false
        }
      ],
      "logsBloom": "0x00008000000000000000000000000000000000000000000000000800000000000000000000000002008000000000000000000000000000000000000000200000000000000000000008000000000000000000000000000000000000000000000000000000000000000000000000000000000000000000000000000000000000000000000000000000000000000000000000000000010000000000000000000000020000000000200000000000000000000000000000000000000000000000000000000000000400000000000000000000000000008000000000000000000000000010000000000000000000000000000000000000000000000000000000000000",
      "type": "0x2",
      "transactionHash": "0x513494d3245d63129b8ffc32ba3efb503943811b98d6bfa1dc729b8d95d6ac9e",
      "transactionIndex": "0xc6",
      "blockHash": "0xb5d4cfe1a6e71cc357629b74961fca98afa58afba103a34cfdb6d4006c58fc51",
      "blockNumber": "0x16bc9bf",
      "gasUsed": "0xd8fa",
      "effectiveGasPrice": "0x1ea5f2c1",
      "from": "0xa0fcc0ef2e8624797ff20c38725748024bca67a3",
      "to": "0xa0b86991c6218b36c1d19d4a2e9eb0ce3606eb48",
      "contractAddress": null
    },
    {
      "status": "0x1",
      "cumulativeGasUsed": "0x1cc26f8",
      "logs": [
        {
          "address": "0xa0b86991c6218b36c1d19d4a2e9eb0ce3606eb48",
          "topics": [
            "0xddf252ad1be2c89b69c2b068fc378daa952ba7f163c4a11628f55a4df523b3ef",
            "0x000000000000000000000000a0fcc0ef2e8624797ff20c38725748024bca67a3",
            "0x0000000000000000000000006e6c09f045f1ddfc05e5cdfa78e441f3ad85a900"
          ],
          "data": "0x00000000000000000000000000000000000000000000000000000000004c4b40",
          "blockHash": "0xb5d4cfe1a6e71cc357629b74961fca98afa58afba103a34cfdb6d4006c58fc51",
          "blockNumber": "0x16bc9bf",
          "blockTimestamp": "0x691f371b",
          "transactionHash": "0x0118cfc48d4006c4760924aca26f0060cdfc76626d2d34817cbf7d942a091bd5",
          "transactionIndex": "0xc7",
          "logIndex": "0x2c5",
          "removed": false
        },
        {
          "address": "0xa0b86991c6218b36c1d19d4a2e9eb0ce3606eb48",
          "topics": [
            "0x8c5be1e5ebec7d5bd14f71427d1e84f3dd0314c0f7b2291e5b200ac8c7c3b925",
            "0x0000000000000000000000006e6c09f045f1ddfc05e5cdfa78e441f3ad85a900",
            "0x000000000000000000000000d4fa2d31b7968e448877f69a96de69f5de8cd23e"
          ],
          "data": "0x00000000000000000000000000000000000000000000000000000000004c4b40",
          "blockHash": "0xb5d4cfe1a6e71cc357629b74961fca98afa58afba103a34cfdb6d4006c58fc51",
          "blockNumber": "0x16bc9bf",
          "blockTimestamp": "0x691f371b",
          "transactionHash": "0x0118cfc48d4006c4760924aca26f0060cdfc76626d2d34817cbf7d942a091bd5",
          "transactionIndex": "0xc7",
          "logIndex": "0x2c6",
          "removed": false
        },
        {
          "address": "0xa0b86991c6218b36c1d19d4a2e9eb0ce3606eb48",
          "topics": [
            "0xddf252ad1be2c89b69c2b068fc378daa952ba7f163c4a11628f55a4df523b3ef",
            "0x0000000000000000000000006e6c09f045f1ddfc05e5cdfa78e441f3ad85a900",
            "0x000000000000000000000000d4fa2d31b7968e448877f69a96de69f5de8cd23e"
          ],
          "data": "0x00000000000000000000000000000000000000000000000000000000004c4b40",
          "blockHash": "0xb5d4cfe1a6e71cc357629b74961fca98afa58afba103a34cfdb6d4006c58fc51",
          "blockNumber": "0x16bc9bf",
          "blockTimestamp": "0x691f371b",
          "transactionHash": "0x0118cfc48d4006c4760924aca26f0060cdfc76626d2d34817cbf7d942a091bd5",
          "transactionIndex": "0xc7",
          "logIndex": "0x2c7",
          "removed": false
        },
        {
          "address": "0x87870bca3f3fd6335c3f4ce8392d69350b4fa4e2",
          "topics": [
            "0x804c9b842b2748a22bb64b345453a3de7ca54a6ca45ce00d415894979e22897a",
            "0x000000000000000000000000a0b86991c6218b36c1d19d4a2e9eb0ce3606eb48"
          ],
          "data": "0x0000000000000000000000000000000000000000002136bfc3ba6ccc5e3cd5cb00000000000000000000000000000000000000000000000000000000000000000000000000000000000000000000000000000000002c9e809ba99a7aa4bb8456000000000000000000000000000000000000000003b9dfb2d87c2f1f21f49baa000000000000000000000000000000000000000003e47bbf6711328819a9f25c",
          "blockHash": "0xb5d4cfe1a6e71cc357629b74961fca98afa58afba103a34cfdb6d4006c58fc51",
          "blockNumber": "0x16bc9bf",
          "blockTimestamp": "0x691f371b",
          "transactionHash": "0x0118cfc48d4006c4760924aca26f0060cdfc76626d2d34817cbf7d942a091bd5",
          "transactionIndex": "0xc7",
          "logIndex": "0x2c8",
          "removed": false
        },
        {
          "address": "0xa0b86991c6218b36c1d19d4a2e9eb0ce3606eb48",
          "topics": [
            "0xddf252ad1be2c89b69c2b068fc378daa952ba7f163c4a11628f55a4df523b3ef",
            "0x000000000000000000000000d4fa2d31b7968e448877f69a96de69f5de8cd23e",
            "0x00000000000000000000000098c23e9d8f34fefb1b7bd6a91b7ff122f4e16f5c"
          ],
          "data": "0x00000000000000000000000000000000000000000000000000000000004c4b40",
          "blockHash": "0xb5d4cfe1a6e71cc357629b74961fca98afa58afba103a34cfdb6d4006c58fc51",
          "blockNumber": "0x16bc9bf",
          "blockTimestamp": "0x691f371b",
          "transactionHash": "0x0118cfc48d4006c4760924aca26f0060cdfc76626d2d34817cbf7d942a091bd5",
          "transactionIndex": "0xc7",
          "logIndex": "0x2c9",
          "removed": false
        },
        {
          "address": "0x98c23e9d8f34fefb1b7bd6a91b7ff122f4e16f5c",
          "topics": [
            "0xddf252ad1be2c89b69c2b068fc378daa952ba7f163c4a11628f55a4df523b3ef",
            "0x0000000000000000000000000000000000000000000000000000000000000000",
            "0x000000000000000000000000d4fa2d31b7968e448877f69a96de69f5de8cd23e"
          ],
          "data": "0x0000000000000000000000000000000000000000000000000000000002a71ea5",
          "blockHash": "0xb5d4cfe1a6e71cc357629b74961fca98afa58afba103a34cfdb6d4006c58fc51",
          "blockNumber": "0x16bc9bf",
          "blockTimestamp": "0x691f371b",
          "transactionHash": "0x0118cfc48d4006c4760924aca26f0060cdfc76626d2d34817cbf7d942a091bd5",
          "transactionIndex": "0xc7",
          "logIndex": "0x2ca",
          "removed": false
        },
        {
          "address": "0x98c23e9d8f34fefb1b7bd6a91b7ff122f4e16f5c",
          "topics": [
            "0x458f5fa412d0f69b08dd84872b0215675cc67bc1d5b6fd93300a1c3878b86196",
            "0x000000000000000000000000d4fa2d31b7968e448877f69a96de69f5de8cd23e",
            "0x000000000000000000000000d4fa2d31b7968e448877f69a96de69f5de8cd23e"
          ],
          "data": "0x0000000000000000000000000000000000000000000000000000000002a71ea500000000000000000000000000000000000000000000000000000000025ad365000000000000000000000000000000000000000003b9dfb2d87c2f1f21f49baa",
          "blockHash": "0xb5d4cfe1a6e71cc357629b74961fca98afa58afba103a34cfdb6d4006c58fc51",
          "blockNumber": "0x16bc9bf",
          "blockTimestamp": "0x691f371b",
          "transactionHash": "0x0118cfc48d4006c4760924aca26f0060cdfc76626d2d34817cbf7d942a091bd5",
          "transactionIndex": "0xc7",
          "logIndex": "0x2cb",
          "removed": false
        },
        {
          "address": "0x87870bca3f3fd6335c3f4ce8392d69350b4fa4e2",
          "topics": [
            "0x2b627736bca15cd5381dcf80b0bf11fd197d01a037c52b927a881a10fb73ba61",
            "0x000000000000000000000000a0b86991c6218b36c1d19d4a2e9eb0ce3606eb48",
            "0x000000000000000000000000d4fa2d31b7968e448877f69a96de69f5de8cd23e",
            "0x0000000000000000000000000000000000000000000000000000000000000000"
          ],
          "data": "0x000000000000000000000000d4fa2d31b7968e448877f69a96de69f5de8cd23e00000000000000000000000000000000000000000000000000000000004c4b40",
          "blockHash": "0xb5d4cfe1a6e71cc357629b74961fca98afa58afba103a34cfdb6d4006c58fc51",
          "blockNumber": "0x16bc9bf",
          "blockTimestamp": "0x691f371b",
          "transactionHash": "0x0118cfc48d4006c4760924aca26f0060cdfc76626d2d34817cbf7d942a091bd5",
          "transactionIndex": "0xc7",
          "logIndex": "0x2cc",
          "removed": false
        },
        {
          "address": "0xd4fa2d31b7968e448877f69a96de69f5de8cd23e",
          "topics": [
            "0xddf252ad1be2c89b69c2b068fc378daa952ba7f163c4a11628f55a4df523b3ef",
            "0x0000000000000000000000000000000000000000000000000000000000000000",
            "0x0000000000000000000000006e6c09f045f1ddfc05e5cdfa78e441f3ad85a900"
          ],
          "data": "0x000000000000000000000000000000000000000000000000000000000042291d",
          "blockHash": "0xb5d4cfe1a6e71cc357629b74961fca98afa58afba103a34cfdb6d4006c58fc51",
          "blockNumber": "0x16bc9bf",
          "blockTimestamp": "0x691f371b",
          "transactionHash": "0x0118cfc48d4006c4760924aca26f0060cdfc76626d2d34817cbf7d942a091bd5",
          "transactionIndex": "0xc7",
          "logIndex": "0x2cd",
          "removed": false
        },
        {
          "address": "0xd4fa2d31b7968e448877f69a96de69f5de8cd23e",
          "topics": [
            "0xdcbc1c05240f31ff3ad067ef1ee35ce4997762752e3a095284754544f4c709d7",
            "0x0000000000000000000000006e6c09f045f1ddfc05e5cdfa78e441f3ad85a900",
            "0x0000000000000000000000006e6c09f045f1ddfc05e5cdfa78e441f3ad85a900"
          ],
          "data": "0x00000000000000000000000000000000000000000000000000000000004c4b40000000000000000000000000000000000000000000000000000000000042291d",
          "blockHash": "0xb5d4cfe1a6e71cc357629b74961fca98afa58afba103a34cfdb6d4006c58fc51",
          "blockNumber": "0x16bc9bf",
          "blockTimestamp": "0x691f371b",
          "transactionHash": "0x0118cfc48d4006c4760924aca26f0060cdfc76626d2d34817cbf7d942a091bd5",
          "transactionIndex": "0xc7",
          "logIndex": "0x2ce",
          "removed": false
        },
        {
          "address": "0xd4fa2d31b7968e448877f69a96de69f5de8cd23e",
          "topics": [
            "0x8c5be1e5ebec7d5bd14f71427d1e84f3dd0314c0f7b2291e5b200ac8c7c3b925",
            "0x0000000000000000000000006e6c09f045f1ddfc05e5cdfa78e441f3ad85a900",
            "0x000000000000000000000000feeb6fe430b7523fef2a38327241ee7153779535"
          ],
          "data": "0x000000000000000000000000000000000000000000000000000000000042291d",
          "blockHash": "0xb5d4cfe1a6e71cc357629b74961fca98afa58afba103a34cfdb6d4006c58fc51",
          "blockNumber": "0x16bc9bf",
          "blockTimestamp": "0x691f371b",
          "transactionHash": "0x0118cfc48d4006c4760924aca26f0060cdfc76626d2d34817cbf7d942a091bd5",
          "transactionIndex": "0xc7",
          "logIndex": "0x2cf",
          "removed": false
        },
        {
          "address": "0xd4fa2d31b7968e448877f69a96de69f5de8cd23e",
          "topics": [
            "0xddf252ad1be2c89b69c2b068fc378daa952ba7f163c4a11628f55a4df523b3ef",
            "0x0000000000000000000000006e6c09f045f1ddfc05e5cdfa78e441f3ad85a900",
            "0x000000000000000000000000feeb6fe430b7523fef2a38327241ee7153779535"
          ],
          "data": "0x000000000000000000000000000000000000000000000000000000000042291d",
          "blockHash": "0xb5d4cfe1a6e71cc357629b74961fca98afa58afba103a34cfdb6d4006c58fc51",
          "blockNumber": "0x16bc9bf",
          "blockTimestamp": "0x691f371b",
          "transactionHash": "0x0118cfc48d4006c4760924aca26f0060cdfc76626d2d34817cbf7d942a091bd5",
          "transactionIndex": "0xc7",
          "logIndex": "0x2d0",
          "removed": false
        },
        {
          "address": "0x40d16fc0246ad3160ccc09b8d0d3a2cd28ae6c2f",
          "topics": [
            "0xddf252ad1be2c89b69c2b068fc378daa952ba7f163c4a11628f55a4df523b3ef",
            "0x0000000000000000000000000000000000000000000000000000000000000000",
            "0x000000000000000000000000feeb6fe430b7523fef2a38327241ee7153779535"
          ],
          "data": "0x00000000000000000000000000000000000000000000000045639099704ef000",
          "blockHash": "0xb5d4cfe1a6e71cc357629b74961fca98afa58afba103a34cfdb6d4006c58fc51",
          "blockNumber": "0x16bc9bf",
          "blockTimestamp": "0x691f371b",
          "transactionHash": "0x0118cfc48d4006c4760924aca26f0060cdfc76626d2d34817cbf7d942a091bd5",
          "transactionIndex": "0xc7",
          "logIndex": "0x2d1",
          "removed": false
        },
        {
          "address": "0x40d16fc0246ad3160ccc09b8d0d3a2cd28ae6c2f",
          "topics": [
            "0xacb6de9209e4f34974cb165eef5738f0cf0b4ea9819ef30d30f0f7d81272ab82",
            "0x000000000000000000000000feeb6fe430b7523fef2a38327241ee7153779535"
          ],
          "data": "0x000000000000000000000000000000000000000000234c68bb8e338ec435e000000000000000000000000000000000000000000000234c6900f1c4283484d000",
          "blockHash": "0xb5d4cfe1a6e71cc357629b74961fca98afa58afba103a34cfdb6d4006c58fc51",
          "blockNumber": "0x16bc9bf",
          "blockTimestamp": "0x691f371b",
          "transactionHash": "0x0118cfc48d4006c4760924aca26f0060cdfc76626d2d34817cbf7d942a091bd5",
          "transactionIndex": "0xc7",
          "logIndex": "0x2d2",
          "removed": false
        },
        {
          "address": "0x40d16fc0246ad3160ccc09b8d0d3a2cd28ae6c2f",
          "topics": [
            "0xddf252ad1be2c89b69c2b068fc378daa952ba7f163c4a11628f55a4df523b3ef",
            "0x000000000000000000000000feeb6fe430b7523fef2a38327241ee7153779535",
            "0x0000000000000000000000006e6c09f045f1ddfc05e5cdfa78e441f3ad85a900"
          ],
          "data": "0x00000000000000000000000000000000000000000000000045639099704ef000",
          "blockHash": "0xb5d4cfe1a6e71cc357629b74961fca98afa58afba103a34cfdb6d4006c58fc51",
          "blockNumber": "0x16bc9bf",
          "blockTimestamp": "0x691f371b",
          "transactionHash": "0x0118cfc48d4006c4760924aca26f0060cdfc76626d2d34817cbf7d942a091bd5",
          "transactionIndex": "0xc7",
          "logIndex": "0x2d3",
          "removed": false
        },
        {
          "address": "0xfeeb6fe430b7523fef2a38327241ee7153779535",
          "topics": [
            "0xefd9053c6d75eeb7635ae405072e58d5d1588e1ee0db5d212e6afcb529b975e3",
            "0x0000000000000000000000006e6c09f045f1ddfc05e5cdfa78e441f3ad85a900",
            "0x0000000000000000000000006e6c09f045f1ddfc05e5cdfa78e441f3ad85a900"
          ],
          "data": "0x000000000000000000000000000000000000000000000000000000000042291d00000000000000000000000000000000000000000000000045639099704ef0000000000000000000000000000000000000000000000000000000000000000000",
          "blockHash": "0xb5d4cfe1a6e71cc357629b74961fca98afa58afba103a34cfdb6d4006c58fc51",
          "blockNumber": "0x16bc9bf",
          "blockTimestamp": "0x691f371b",
          "transactionHash": "0x0118cfc48d4006c4760924aca26f0060cdfc76626d2d34817cbf7d942a091bd5",
          "transactionIndex": "0xc7",
          "logIndex": "0x2d4",
          "removed": false
        },
        {
          "address": "0x40d16fc0246ad3160ccc09b8d0d3a2cd28ae6c2f",
          "topics": [
            "0xddf252ad1be2c89b69c2b068fc378daa952ba7f163c4a11628f55a4df523b3ef",
            "0x0000000000000000000000006e6c09f045f1ddfc05e5cdfa78e441f3ad85a900",
            "0x000000000000000000000000a0fcc0ef2e8624797ff20c38725748024bca67a3"
          ],
          "data": "0x00000000000000000000000000000000000000000000000045639099704ef000",
          "blockHash": "0xb5d4cfe1a6e71cc357629b74961fca98afa58afba103a34cfdb6d4006c58fc51",
          "blockNumber": "0x16bc9bf",
          "blockTimestamp": "0x691f371b",
          "transactionHash": "0x0118cfc48d4006c4760924aca26f0060cdfc76626d2d34817cbf7d942a091bd5",
          "transactionIndex": "0xc7",
          "logIndex": "0x2d5",
          "removed": false
        },
        {
          "address": "0x6e6c09f045f1ddfc05e5cdfa78e441f3ad85a900",
          "topics": [
            "0x517f4de333bbdf25024f8e6195e56d8162436e75c45063f1a3f6405d7ee32741",
            "0x000000000000000000000000a0fcc0ef2e8624797ff20c38725748024bca67a3",
            "0x000000000000000000000000a0b86991c6218b36c1d19d4a2e9eb0ce3606eb48"
          ],
          "data": "0x00000000000000000000000000000000000000000000000000000000004c4b4000000000000000000000000000000000000000000000000045639099704ef000",
          "blockHash": "0xb5d4cfe1a6e71cc357629b74961fca98afa58afba103a34cfdb6d4006c58fc51",
          "blockNumber": "0x16bc9bf",
          "blockTimestamp": "0x691f371b",
          "transactionHash": "0x0118cfc48d4006c4760924aca26f0060cdfc76626d2d34817cbf7d942a091bd5",
          "transactionIndex": "0xc7",
          "logIndex": "0x2d6",
          "removed": false
        }
      ],
      "logsBloom": "0x00808220000040000000000000008000000000000000000002000800000000020000001000000062008002008004000000000000000000000000000080200000000000400004001008000008000000000000000000000000000000040008000000000008020000000000008040000800000000000004000100001010000100080000000000080000000000000000000200000000010000040001000000000000020000002000200100000000000000000000001000002000000000000000010022100002000404000000002040000000000080008008000040000000000020000010008000000000000000000000000044000000000200000000400000000000",
      "type": "0x2",
      "transactionHash": "0x0118cfc48d4006c4760924aca26f0060cdfc76626d2d34817cbf7d942a091bd5",
      "transactionIndex": "0xc7",
      "blockHash": "0xb5d4cfe1a6e71cc357629b74961fca98afa58afba103a34cfdb6d4006c58fc51",
      "blockNumber": "0x16bc9bf",
      "gasUsed": "0x593c8",
      "effectiveGasPrice": "0x1ea5f2c1",
      "from": "0xa0fcc0ef2e8624797ff20c38725748024bca67a3",
      "to": "0x6e6c09f045f1ddfc05e5cdfa78e441f3ad85a900",
      "contractAddress": null
    }
  ],
  "libraries": [],
  "pending": [],
  "returns": {},
  "timestamp": 1763653422682,
  "chain": 1,
  "commit": "89e2345"
}